:0A0000000C9457040C949E050C9418
:10000A0000000C9400000C9400000C9400000C9466
:10001A0000000C9400000C9400000C9432050C941F
:10002A0000000C9400000C9400000C9400000C9446
:10003A0000000C9400000C9400000C9400000C9436
:10004A0000000C9400000C9400001027E8036400E0
:10005A000A00010000100001100001000000313206
:10006A00334136353442373839432A302344600223
:10007A0066026C027602790282028D0298029F025F
:10008A00A602AD02B402BC02C602CD02D202D70257
:10009A00E002E902F102FB0205030D0316031E0347
:1000AA0024032B0335033C0341034D0355035D032E
:1000BA006403690375037B0383038A0392039A0328
:1000CA009F03B003BD03C803CD03D503DC03E403D8
:1000DA00EE03F503FB0301040504100418041E04CF
:1000EA00290433043B0443044E0455045C046304AA
:1000FA0068046E0477047C04840494049B04A404B6
:10010A00AB04B204BB04C204D204DE04E504EB046B
:10011A00F504FC04060512051405160518051A054A
:10012A001C051E05200522052405260528052A0585
:10013A002C052E05300532053405360538053A05F5
:10014A003C053E05400542054405460548054A0565
:10015A004C054E05500552055405560558055A05D5
:10016A005C055E05600562056405660568056A0545
:10017A006C056E05700572057405760578057A05B5
:10018A007C057E058005820584058605030053707B
:10019A006F7274004D6F76696500436F756E747285
:1001AA0069657300435300666F6F7462616C6C001B
:1001BA006261736B657462616C6C00766F6C6C65FE
:1001CA007962616C6C006B6172617465006B756E4B
:1001DA0067667500626F78696E670074656E6E692E
:1001EA00730072756E6E696E670077726573746CF0
:1001FA00696E6700686F636B6579006A75646F0082
:10020A00676F6C66006261736562616C6C0062693B
:10021A006C6C69617264006375726C696E670077F1
:10022A0061746572706F6C6F007461656B77616E73
:10023A00646F0066656E63696E67007377696D6DDA
:10024A00696E67006A756A69747375006A6F6B65AF
:10025A0072006261746D616E00676F6466617468D2
:10026A006572006C697A61726400736F756C0069FB
:10027A006E6372656469626C6573006D656D656E47
:10028A00746F006172726976616C00627572696579
:10029A0064006375626500626C61646572756E6E96
:1002AA00657200616C69656E007368696E696E6774
:1002BA000070797363686F00746974616E696300B2
:1002CA007665727469676F006578616D006E6F6339
:1002DA007475726E616C616E696D616C73007377AF
:1002EA0069737361726D796D616E007365706572A1
:1002FA006174696F6E006972616E006765726D6123
:10030A006E79006272617A696C00656E676C616E03
:10031A006400617267656E74696E61007377656403
:10032A00656E0073616D6F61006368696E61007567
:10033A00616500757A62616B697374616E006465E8
:10034A006E6D61726B006768616E610062616E67F3
:10035A006C61646573680076656E657A75656C6153
:10036A00007A696D62617765006E696765726961B5
:10037A00006C7578656D626F757267006772656586
:10038A006365006672616E63650063797072757386
:10039A0000636F646500646562756700636F6D7002
:1003AA00696C6572006A61766100626F6F6C656183
:1003BA006E006F7065726174696E677379737465C4
:1003CA006D006769746875620066756E6374696F3B
:1003DA006E0073796E746178006369706865720083
:1003EA00617267756D656E7400707974686F6E00FE
:1003FA006D616368696E656C6561726E696E6700CE
:10040A00696E74657270726574657200676F6F6782
:10041A006C6500717565727900616C676F726974D9
:10042A00686D006B65726E656C0070726F636573E0
:10043A00736F7200636F6E63757272656E637900B3
:10044A0069006A0070007100760077007A00200067
:10045A002A0053636F72653A202564005365636FFF
:10046A006E64204C6364002025642E005F200043E4
:10047A006F7272656374210047414D45204F56459E
:10048A00522121202020202020202020202020202E
:10049A0020202020202074727920616761696E0013
:1004AA0001002D4E414E00494E46000002000C004C
:1004BA0066001000D6056800060060029801060072
:1004CA0066029E010A006C02A40103007602AE01D4
:1004DA0008004C06780009007902B1010B0082027B
:1004EA00BA010B008D02C50107009802D00107006E
:1004FA009F02D7010700A602DE010700AD02E5014F
:10050A000800B402EC010A00BC02F4010700C602AA
:10051A00FE010500CD0205020500D2020A02090009
:10052A00D7020F020900E00218020800E9022102BC
:10053A000A00F10229020A00FB023302080005033D
:10054A003D0209000D034502080016034E02280069
:10055A005406800006001E035602070024035C02AC
:10056A000A002B036302070035036D0205003C03F2
:10057A0074020C004103790208004D038502080049
:10058A0055038D0207005D039502050064039C0272
:10059A000C006903A10206007503AD0208007B0383
:1005AA00B30207008303BB0208008A03C2020800E1
:1005BA009203CA0205009A03D20211009F03D702CE
:1005CA000D00B003E8020B00BD03F50228007C060B
:1005DA00A8000500C80300030800CD0305030700AF
:1005EA00D5030D030800DC0314030A00E4031C030B
:1005FA000700EE0326030600F5032D030600FB039E
:10060A0033030400010439030B0005043D03080009
:10061A00100448030600180450030B001E04560376
:10062A000A0029046103080033046B0308003B0431
:10063A0073030B0043047B0307004E048603070081
:10064A0055048D0307005C0494032800A406D00017
:10065A00050063049B0306006804A00309006E04F6
:10066A00A60305007704AF0308007C04B403100056
:10067A008404BC0307009404CC0309009B04D3033D
:10068A000700A404DC030700AB04E3030900B20477
:10069A00EA030700BB04F3031000C204FA030C00C8
:1006AA00D2040A040700DE0416040600E5041D0449
:1006BA000A00EB0423040700F5042D040A00FC04D5
:1006CA0034040C0006053E042800CC06F80002009B
:1006DA001205240302001405D10302001605C802FC
:1006EA00020018051F0202001A05A20102001C05D9
:1006FA000D020C00F406200102001E05E3010200AF
:10070A0020055F03020022054A04020024054C0466
:10071A00020026054E0302002805B8010C00000756
:10072A002C0102002A05D50202002C0561020200F2
:10073A002E050802020030054E040200320550045C
:10074A00020034055A0202003605AC010E000C07FD
:10075A003801020038059C0102003A05DC0102005A
:10076A003C05520402003E05540402004005E10320
:10077A000200420503020200440556040E001A074D
:10078A004601020046059C0102004805DC01020000
:10079A004A05520402004C05540402004E05E103C6
:1007AA000200500503020200520556040E002807F3
:1007BA00540102005405240302005605D103020025
:1007CA005805C80202005A051F0202005C05A20170
:1007DA0002005E050D0202006005E30102006205E7
:1007EA005F03020064054A04020066054C04020025
:1007FA0068054E0302006A05B80102006C05D502BD
:10080A0002006E056102020070050802020072050C
:10081A004E04020074055004020076055A020200D2
:10082A007805AC0102007A059C0102007C05DC0116
:10083A0002007E055204020080055404020082056B
:10084A00E10302008405030202008605560434000F
:10085A00360762010100AE079601020088055804B6
:10086A0002008A055A0402008C05580402008E050B
:10087A0058040200900558040B0092056604030010
:10088A009D0576040200A00558040300A20576041B
:10089A000900A50579042800AE0582040100B00705
:1008AA00AA040000F894EE27ECBBF1E0FBBFEBBF13
:1008BA00E5BF8DE0A2E0BB27ED938A95E9F780E0DA
:1008CA0098E0A0E6ED930197E9F7E6EBF4E085916D
:1008DA009591009761F0A591B59105901590BF018A
:1008EA00F00105900D920197E1F7FB01F0CFEFE5DA
:1008FA00EDBFE8E0EEBFC0E6D2E00C947405AA931F
:10090A00E881E8BB95980E94A70B4EC2AA93E8819A
:10091A00E8BB959A0E94A70B47C2EFEFE7BBE1B38A
:10092A00E06FE1BB97980E94B20BA8E3E8DFAEE064
:10093A00E6DFA1E0E4DF0E94B20BA6E0E0DF089563
:10094A000E94B70BDCDF71C0BA93AA931A9310E026
:10095A000E94CC0BEC91E03031F00E94CC0BAC91B0
:10096A00D5DF1F5FF5CF76C0EFEEE5BB00000E9432
:10097A00D20B11F0442418C0EFEDE5BB00000E9431
:10098A00D20B11F0E1E00FC0EFEBE5BB00000E94D3
:10099A00D20B11F0E2E007C0EFE7E5BB0000E3B3DA
:1009AA00EF705E2EE3E04E2EEEE0E51531F4E42D15
:1009BA00F0E0EA52FA4FE0810895EDE0E51519F406
:1009CA00AAEDB5E008C0EBE0E51519F4AEEDB5E027
:1009DA0002C0A2EEB5E0EE27A40DBE1FEC91089569
:1009EA000895AA93E881EBBB91980E94D80BDCC1C9
:1009FA00AA93E881EBBB919A0E94D80BD5C1EFEF7D
:100A0A00EABBE1B3EB60E1BB94980E94B20BA8E3A6
:100A1A00E8DFAEE0E6DFA1E0E4DF0E94B20BA6E089
:100A2A00E0DF08950E94B70BDCDF88EC90E00197C5
:100A3A00F1F726960895BA93AA931A9310E00E94A2
:100A4A00CC0BEC91E03031F00E94CC0BAC91D0DFB2
:100A5A001F5FF5CF1881239608950E94E30BEDBD21
:100A6A00EFE0ECBD0E94F20BE3E0F0E08E169F0689
:100A7A003CF4A8E8B5E0DFDFF40131964F01F4CF8A
:100A8A000E94F20BE091AE07F091AF078E169F0617
:100A9A003CF4AAE8B5E0CFDFF40131964F01F2CF7A
:100AAA00EAE1F6E0FA93EA93ECE5F4E0FA93EA93E2
:100ABA00E0919E07F0919F070E94FA0BEAE0EA9301
:100ACA00A3E0B0DFAAE1B6E0B6DFACE8B5E0B3DF99
:100ADA00AEE8B5E0B0DFA0E9B5E0ADDFECC0E0E03C
:100AEA00EFBDE4E0EEBDEFEFEDBDEFE0ECBDE0E021
:100AFA00E7BDE6BDEBBDEABDE9BDE8BDE4E0E9BF9F
:100B0A00E1E0E093AB07E2E0E5BFE0E4EBBFE0EF52
:100B1A00E4BBEFE0E5BB88249924DBD070DFE1E099
:100B2A00EA93A1E07FDFA2E9B5E085DF7894FFCF01
:100B3A00FFCF0E94E30BEABBE0E0EBBBE1E0EA9304
:100B4A00A1E0FEDE11DF7E2EA091A807A130A1F45C
:100B5A00A7E0B0E00E94340B319734F0A7E0B0E090
:100B6A000E94340B35970CF006C0E0E0E093A8072A
:100B7A00672CA72DE7D09BC0A091A907A13009F047
:100B8A0096C0E1E4E71561F4E0E0E093A007E093A2
:100B9A00A107A4EFB6E0C0D1E0E0E093AB0734C010
:100BAA00E2E4E71559F4E1E0F0E00E94030CA0E06A
:100BBA00B7E0B2D1E0E0E093AB0726C0E3E4E71583
:100BCA0059F4E2E0F0E00E94030CACE0B7E0C4D1D3
:100BDA00E0E0E093AB0718C0E4E4E71559F4E3E07A
:100BEA00F0E00E94030CAAE1B7E0B6D1E0E0E0939E
:100BFA00AB070AC0E091AB07E03031F4E3E2E71556
:100C0A0019F0E1E0E093AA07E091AA07E03009F4BD
:100C1A004EC0E0E0E093AA07E7E0F0E05F01FA9354
:100C2A00EA93E3E6F4E0FA93EA93E2EAF7E0662766
:100C3A0077270E94E60C84E00E94070B2896E09131
:100C4A00A007F091A107309729F40E94080CA4EF9D
:100C5A00B6E01AC00E940E0C119729F40E94080CE3
:100C6A00A0E0B7E011C00E940E0C129729F40E946E
:100C7A00080CACE0B7E008C00E940E0C139761F4B0
:100C8A000E94080CA8E2B7E0EE0FFF1F0E94130CA7
:100C9A00E093A407F093A507E091A407F091A507B4
:100CAA00FA93EA93A091A607B091A707A2D0E0EF22
:100CBA00E4BBEFE0E5BBE991EFBFF991E991B991A6
:100CCA00A9919991899179916991F99019900990CD
:100CDA0018950BD162D121DECC24DD24E0E0E0932B
:100CEA009E07E0939F07CC24DD24E1E0EA93A1E08C
:100CFA0027DE88249924E4E0F0E08E169F06F4F4B7
:100D0A00082C092829F00E94180CE1E7F4E004C035
:100D1A000E94180CE2E7F4E0FA93EA930E941D0C91
:100D2A00A8EEB5E011DEF401ACE4B6E00E94200CB6
:100D3A00DF010ADEF40131964F01DDCFE1E0E093F5
:100D4A00A8070895AA93E881F0E0E133A0E0FA0742
:100D5A0021F4F601A4E5B6E017C0E233A0E0FA07F1
:100D6A0021F4F601ACE7B6E00FC0E333A0E0FA07DE
:100D7A0021F4F601A4EAB6E007C0E433A0E0FA07DA
:100D8A0081F4F601ACECB6E0EE0FFF1F0E94130CE3
:100D9A00E093A607F093A707A091A607B091A7072B
:100DAA0005D0F60131966F01219608950E94230C11
:100DBA00A881B9810E946B0BE093E605F093E705E1
:100DCA0094D0882499240E942A0C7CF40E94310C25
:100DDA000E94380CE1E0F0E0ED93FC93ADE9B5E058
:100DEA00B3DDF40131964F01EECFE1E0E093A907BC
:100DFA00D2C00E94230CE1E0E093AC078824992436
:100E0A000E942A0CBCF4AA81BB810C900E94310C6E
:100E1A00E01561F4AA81BB81EC910E94380CE2E0F2
:100E2A00F0E0ED93FC93E0E0E093AC07F401319637
:100E3A004F01E6CFE1E0E093AD07882499240E94B0
:100E4A002A0C44F50E94310C0E94420CE230A0E0C8
:100E5A00FA0771F40E94310CF0E0E156F040A6E383
:100E6A00B7E00E94200CDF016FDDA0EAB5E00DC0FB
:100E7A000E94310C0E94420CE130A0E0FA0731F4E2
:100E8A00E0E0E093AD07A2EAB5E05EDDF401319659
:100E9A004F01D5CFE091AC07E03089F0E091AE0781
:100EAA00F091AF073197E093AE07F093AF07A091A7
:100EBA00AE07B091AF070E94EB0C0CF075D0E09131
:100ECA00AD07E03081F07ED0A4E6B0E00E94AC0C21
:100EDA0024DDA5EAB5E038DDA4E6B0E00E94AC0C5A
:100EEA005CD0A62D2FDF2496089588249924E9E161
:100EFA00F0E08E169F067CF4F401AAE6B7E0EE0F46
:100F0A00FF1FAE0FBF1FE0E0F0E0ED93FC93F4018A
:100F1A0031964F01ECCF08950E94480CE6E0F0E0CC
:100F2A008E169F06C4F4082C092829F00E94180C72
:100F3A00E1E7F4E004C00E94180CE2E7F4E0FA9357
:100F4A00EA930E941D0C0E94520CDF0174DDF40129
:100F5A0031964F01E3CF1FC00E94480CE7E0F0E052
:100F6A008E169F06C4F4082C092829F00E94180C32
:100F7A00E1E7F4E004C00E94180CE2E7F4E0FA9317
:100F8A00EA930E941D0C0E94520CDF0154DDF40109
:100F9A0031964F01E3CF22960895E3E0F0E0E09323
:100FAA00AE07F093AF070895E0E0E093A907B5DC38
:100FBA00AEEAB5E0C9DCA8ECB0E00E94AC0CEDDF0B
:100FCA0088DE0895E091E605F091E705AAE0B0E031
:100FDA000E94CB0CEC0DFD1DA0919E07B0919F07BE
:100FEA00EA0FFB1FE0939E07F0939F070895BA93B9
:100FFA00AA931A930A93AA81BB8112960E94DE0CC5
:10100A00309729F1AA81BB8114960E94DE0C8F01C8
:10101A00309761F00230E0E01E0780F0F801319766
:10102A008F01AA81BB811496ED93FC93AA81BB819F
:10103A0012960E945A0C3197AC81A083AA81BB8177
:10104A000E94DE0CFF2312F00E945A0C06C0AA81ED
:10105A00BB81EFEFFFEFED93FC93198108818EC1FD
:10106A00BA93AA9326970E94EF0C10E0AC85BD852F
:10107A00E0E0F0E0ED93FC93EA89FB893196EA8B94
:10108A00FB8B3197E4912E2FE03009F415C1E12F43
:10109A00E03039F4253211F411E002C00E94600CEC
:1010AA000AC1E130A9F4253219F40E94600C02C188
:1010BA0012E040E000E02D3211F401E0FCC02B32D6
:1010CA0011F44BE2F8C0203211F440E2F4C002C03D
:1010DA00E23039F450E013E0203311F40068EBC039
:1010EA0003C0E33009F0E7C0203310F02A3308F0D8
:1010FA0007C0AAE05A9F502DE22FE0535E0FDBC0D3
:10110A00E22FE33649F40E94670CE889F989A48141
:10111A00AA930E946D0CCEC0E33741F40E94670C7B
:10112A000E94730C0E946B0B1E2F0AC0E03761F4F9
:10113A000E94670C0E94730C0E94770B1E2F086096
:10114A0002600F7730E034C0E43611F0E93611F46A
:10115A00046002C0E53731F4E4E5F0E0EE83FF8392
:10116A0015E00CC0E83511F4086003C0E83709F04F
:10117A00A1C0EEE5F0E0EE83FF8314E002FF14C0A5
:10118A000E94670C0E947D0CAB85AA233AF4EA857B
:10119A00FB850E94BA0CEA87FB874DE2403011F0CA
:1011AA001F5F01C00B7F04C00E94670C0E947D0C68
:1011BA0000FD11C0151778F407FF08C002FF04C02C
:1011CA000B7F242F115001C020E301C020E20E94AE
:1011DA00600C5150EFCF312F01FF17C03030A1F012
:1011EA0003FF06C0EE81FF812591EE83FF8305C0D0
:1011FA00AE81BF812D91AE83BF830E94600C5030B7
:10120A0009F051503150EACF4BC020E3EE81FF8103
:10121A000E94E20CE887F987EE81FF813296EE831D
:10122A00FF83E885F985AA85BB85AE17BF0750F00D
:10123A002F5FA885B985EA85FB85EA1BFB0BEA8740
:10124A00FB87EFCF2A3328F003FF02C0295F01C0D2
:10125A00295D04FD1AC0213320F4A885B9851197A8
:10126A0009F409C0531710F000FF01C013C020E2AF
:10127A0007FF0BC020E3006102FF07C00B7F4A9300
:10128A000E946D0C503009F051500E94600C503091
:10129A0009F051503150A885B985129708F0B5CF99
:1012AA0000FF08C0503031F05150E0E2EA930E944A
:1012BA006D0CF8CF10E0E0CEAC85BD850E94DE0C47
:1012CA000E94F60C64960895FF92F82E26970E94C3
:1012DA00F10C0E94850C309719F4EFEFFFEF21C053
:1012EA00DE0116960E94B60C8D010E94850CEE83D3
:1012FA00FF83E0E0E887E987DE011A960E948C0CFA
:10130A00FA93EA931A930A93ECEFF7E0FA93EA93C3
:10131A00DE011A96A5DE9F01AE81BF81E0E0EC9363
:10132A00F9010E94F80C2A96FF900895BA93AA939D
:10133A001A93A981BA81E0E0EC93AB81BC81EC916C
:10134A001E2FE03019F0E0E0EC9316C0A981BA81B3
:10135A0011960E94DE0C309771F0E981FA81A18121
:10136A00B281EC911E2FE03029F0A981BA81119641
:10137A000E945A0C01C010E0E12F188125960895A9
:10138A00FF92BA93AA9324970E94EF0CE0E0F0E050
:10139A00E887F9874E2FE889F9893196E88BF98B26
:1013AA003197E4913E2FE03009F425C10E94910C57
:1013BA00C1F0EDB7FEB7FA93EA934F930E94960CE9
:1013CA004F913E2FE03019F00E94910C09F407C0AA
:1013DA000E949C0C1CF4EFEFFFEF0FC1EACF432FE2
:1013EA0009C1353209F0EEC050E0E889F989359132
:1013FA00E88BF98B303310F03A3308F007C0AAE0D3
:10140A005A9F502DE32FE0535E0FEFCF303009F48F
:10141A00F2C0EDB7FEB7FA93EA934F930E94960C87
:10142A004F912E2FAE2F0E948D0BE03039F00E9483
:10143A009C0C1CF4EFEFFFEFE0C0EBCF203009F477
:10144A00D1C0422F503009F45FEFE32FE33699F40D
:10145A000E94A10CEDB7FEB7FA93EA934F930E944C
:10146A00960C4F91D801EC930E949C0C1CF4EFEF60
:10147A00FFEFC3C0A1C0E33741F50E94A10CE52FDD
:10148A005150E030F1F0EDB7FEB7FA93EA934F937B
:10149A000E94960C4F913E2FE03019F00E94910C59
:1014AA0039F00E949C0C1CF4EFEFFFEFA6C009C0B4
:1014BA001F930F930F5F1F4FE32FAF91BF91EC93D1
:1014CA00DECFD801E0E0EC9377C06894F1F8E894B5
:1014DA00F2F8E32FE43611F0E93619F4E894F1F85A
:1014EA0002C0E53711F42AE008C0E83711F420E118
:1014FA0004C0E53209F466C07EC0E0E0EE83EF8303
:10150A006894F0F8E52F5150E03009F446C0EDB781
:10151A00FEB7FA93EA934F930E94960C4F913E2F8F
:10152A00E13238F40E949C0C1CF4EFEFFFEF65C027
:10153A0017C0F1FC08C06894F1F83D3211F4F2F8D2
:10154A00E1CF3B32F9F2203131F4A32F0E94980BFC
:10155A00E03031F009C0A32F0E94840BE03021F45F
:10156A00F0FC49C0432F19C0313610F0375505C079
:10157A00313410F0375301C03053E22FAE81BF81AE
:10158A00F0E00E94C30CDF01E32FF0E0EA0FFB1F3B
:10159A00EE83FF83E894F0F8B5CF0E94A10CF2FE27
:1015AA0006C0EE81FF810E94BA0CEE83FF83EE81B2
:1015BA00FF81D801ED93FC93E885F9853196E88798
:1015CA00F98718C0EDB7FEB7FA93EA934F930E94D2
:1015DA00960C4F91E31771F00E949C0C1CF4EFEFEC
:1015EA00FFEF0BC0E885F985309719F4EFEFFFEFAD
:1015FA0004C001C0D0CEE885F9850E94F60C629637
:10160A00FF900895FF92F82E23971A930A93DE010A
:10161A0017960E948C0C309719F4EFEFFFEF1AC05F
:10162A00DE0111960E94B60C8D01DE0117960E940A
:10163A008C0CEB83FC83DE0115960E948C0CFA93CA
:10164A00EA931A930A93EBE9F9E0FA93EA93DE0133
:10165A00189696DE198108812596FF900895BA9307
:10166A00AA93B981A881EC918A2FAE2F0E948D0B83
:10167A00A82FEE2311F01196F6CFE894EC91ED32F3
:10168A0011F4689402C0EB3209F4119666277727A1
:10169A00EC918A2FAE2F0E94840BA82FEE2379F0AB
:1016AA00FB01660F771F660F771F6E0F7F1F660F8E
:1016BA00771FED91FF27E0536E0F7F1FE9CFFB01E4
:1016CA001EF4E095F095319622960895BA93AA935E
:1016DA00A991B991EE27FF276D91662311F03196F2
:1016EA00FBCF0895BA93AA93AA27BB27E991F99148
:1016FA000590002011F01196FBCFFD010895AA93E1
:10170A00E1E0F991F03310F0FA3308F0EE2708958A
:10171A00AA93E1E0F991F03229F0F93010F0FE30A5
:10172A0008F0EE270895AA93E1E0F991F05340F00A
:10173A00FA3038F0FF75F750FA3010F0F03108F04F
:10174A00EE2708959698979A83E08A95F1F79798E5
:10175A0088EC90E00197F1F7089580EA9FE00197FD
:10176A00F1F70895AA932497E0E8E883E0ECE98387
:10177A00E4E9EA83E4EDEB83EC81F0E03197DE0102
:10178A00AE0FBF1FEC91AD81AE0FA1500895A98194
:10179A00BA81EE27A10FBE1F0895E3B3EF705E2E44
:1017AA00EFE0E51508959398949A83E08A95F1F706
:1017BA00949888EC90E00197F1F708950A921A92AA
:1017CA00FA926A937A938A939A93AA93BA93EA9328
:1017DA00FA93EFB7EA93EFEF0895EBE0EA93A4E008
:1017EA000E9417058824992408950E94BE0C0E941D
:1017FA00E60C84E00E94690928960895E093A00700
:10180A00F093A1070895E091A207F091A3073197F9
:10181A000895A091A007B091A1070895AE0FBF1F28
:10182A000E94DE0C0895E8EEF5E0FA93EA93089533
:10183A00F4013196DACFEE0FFF1FF0CFBA93AA93D5
:10184A000E949204ACE00C948404E091E605F091C5
:10185A00E7058E169F060895F401A881B981AE0F97
:10186A00BF1FEC910895F0E0E156F040AAE6B7E018
:10187A00EE0FFF1FAE0FBF1F0895F0E0E156F040D4
:10188A00AAE6B7E0D8CFBA93AA930E940405ACE0BF
:10189A000E94F604882499240895A8EEB5E00E94CF
:1018AA002005F401A881B981C6CFED91FD91319649
:1018BA00FE93EE9308952A93AD85BE85EF85F88948
:1018CA0009950895E889F9893497E88BF98B089581
:1018DA00AD85BE85EF85F88909950895A889B989E6
:1018EA0014960E94DE0CEE83FF83AE81BF810895B9
:1018FA00A889B98914960E94DE0CEA87FB870895A5
:10190A00DE011C960E94B60C0E94DE0C08950E940D
:10191A00B60C0E94DE0C0895A32F0E948D0BE030B6
:10192A000895AC85BD85EE85FF8509950895AA853C
:10193A00BB85AC91A0300895EE85FF853497EE877C
:10194A00FF87AE85BF8514960D911C910895109658
:10195A0039F080ED97E00197F1F7A8951197C9F74B
:10196A0008950024AF0DB01D0895F195E195F0405A
:10197A0008956F2F660F660B762F0895FA9FF02D44
:10198A00EB9FF00DEA9FE02DF10D089504D0F6DFEC
:10199A000EF4EBDF0895E894F7FF02C0E6DF6894DF
:1019AA00B7FF06C0A095B095119600F8039400FA07
:1019BA000895ED91FC91119708950590F491E02D09
:1019CA0008957A936A93FA93EA93089500240A167B
:1019DA000B0608955A934A933A932A931A930A93B1
:1019EA0008955D814C813B812A811981088108957E
:00000001FF
